{
  "address": "0x5FbDB2315678afecb367f032d93F642f64180aa3",
  "abi": [
    {
      "inputs": [
        {
          "internalType": "address",
          "name": "nft",
          "type": "address"
        },
        {
          "internalType": "uint256",
          "name": "tokenId",
          "type": "uint256"
        }
      ],
      "name": "NFTmarket_AlreadyListed",
      "type": "error"
    },
    {
      "inputs": [],
      "name": "NFTmarket_NoProceeds",
      "type": "error"
    },
    {
      "inputs": [],
      "name": "NFTmarket_NotApproved",
      "type": "error"
    },
    {
      "inputs": [
        {
          "internalType": "address",
          "name": "nftAddress",
          "type": "address"
        },
        {
          "internalType": "uint256",
          "name": "tokenId",
          "type": "uint256"
        },
        {
          "internalType": "uint256",
          "name": "value",
          "type": "uint256"
        },
        {
          "internalType": "address",
          "name": "sender",
          "type": "address"
        }
      ],
      "name": "NFTmarket_NotEnoughPrice",
      "type": "error"
    },
    {
      "inputs": [
        {
          "internalType": "address",
          "name": "nft",
          "type": "address"
        },
        {
          "internalType": "uint256",
          "name": "tokenId",
          "type": "uint256"
        }
      ],
      "name": "NFTmarket_NotListed",
      "type": "error"
    },
    {
      "inputs": [
        {
          "internalType": "address",
          "name": "nft",
          "type": "address"
        },
        {
          "internalType": "uint256",
          "name": "token",
          "type": "uint256"
        },
        {
          "internalType": "address",
          "name": "owner",
          "type": "address"
        }
      ],
      "name": "NFTmarket_NotOwner",
      "type": "error"
    },
    {
      "inputs": [],
      "name": "NFTmarket_PriceCannotBeZero",
      "type": "error"
    },
    {
      "inputs": [
        {
          "internalType": "address",
          "name": "sender",
          "type": "address"
        },
        {
          "internalType": "uint256",
          "name": "proceeds",
          "type": "uint256"
        }
      ],
      "name": "NFTmarket_transferFailed",
      "type": "error"
    },
    {
      "anonymous": false,
      "inputs": [
        {
          "indexed": true,
          "internalType": "address",
          "name": "nftAddress",
          "type": "address"
        },
        {
          "indexed": true,
          "internalType": "uint256",
          "name": "tokenId",
          "type": "uint256"
        },
        {
          "indexed": false,
          "internalType": "uint256",
          "name": "price",
          "type": "uint256"
        },
        {
          "indexed": false,
          "internalType": "address",
          "name": "buyer",
          "type": "address"
        }
      ],
      "name": "ItemBought",
      "type": "event"
    },
    {
      "anonymous": false,
      "inputs": [
        {
          "indexed": true,
          "internalType": "address",
          "name": "nftAddress",
          "type": "address"
        },
        {
          "indexed": true,
          "internalType": "uint256",
          "name": "tokenId",
          "type": "uint256"
        }
      ],
      "name": "ItemCanceled",
      "type": "event"
    },
    {
      "anonymous": false,
      "inputs": [
        {
          "indexed": true,
          "internalType": "address",
          "name": "nft",
          "type": "address"
        },
        {
          "indexed": true,
          "internalType": "uint256",
          "name": "tokenId",
          "type": "uint256"
        },
        {
          "indexed": false,
          "internalType": "uint256",
          "name": "price",
          "type": "uint256"
        },
        {
          "indexed": false,
          "internalType": "address",
          "name": "sender",
          "type": "address"
        }
      ],
      "name": "ItemListed",
      "type": "event"
    },
    {
      "inputs": [
        {
          "internalType": "address",
          "name": "nftAddress",
          "type": "address"
        },
        {
          "internalType": "uint256",
          "name": "tokenId",
          "type": "uint256"
        }
      ],
      "name": "buyItem",
      "outputs": [],
      "stateMutability": "payable",
      "type": "function"
    },
    {
      "inputs": [
        {
          "internalType": "address",
          "name": "nftAddress",
          "type": "address"
        },
        {
          "internalType": "uint256",
          "name": "tokenId",
          "type": "uint256"
        }
      ],
      "name": "cancelListing",
      "outputs": [],
      "stateMutability": "nonpayable",
      "type": "function"
    },
    {
      "inputs": [
        {
          "internalType": "address",
          "name": "nft",
          "type": "address"
        },
        {
          "internalType": "uint256",
          "name": "id",
          "type": "uint256"
        }
      ],
      "name": "getListing",
      "outputs": [
        {
          "components": [
            {
              "internalType": "address",
              "name": "seller",
              "type": "address"
            },
            {
              "internalType": "uint256",
              "name": "price",
              "type": "uint256"
            }
          ],
          "internalType": "struct NFTmarket.Listing",
          "name": "",
          "type": "tuple"
        }
      ],
      "stateMutability": "view",
      "type": "function"
    },
    {
      "inputs": [],
      "name": "getProceeds",
      "outputs": [
        {
          "internalType": "uint256",
          "name": "",
          "type": "uint256"
        }
      ],
      "stateMutability": "view",
      "type": "function"
    },
    {
      "inputs": [
        {
          "internalType": "address",
          "name": "nftAddress",
          "type": "address"
        },
        {
          "internalType": "uint256",
          "name": "tokenId",
          "type": "uint256"
        },
        {
          "internalType": "uint256",
          "name": "price",
          "type": "uint256"
        }
      ],
      "name": "listItem",
      "outputs": [],
      "stateMutability": "nonpayable",
      "type": "function"
    },
    {
      "inputs": [
        {
          "internalType": "address",
          "name": "nftAddress",
          "type": "address"
        },
        {
          "internalType": "uint256",
          "name": "tokenId",
          "type": "uint256"
        },
        {
          "internalType": "uint256",
          "name": "price",
          "type": "uint256"
        }
      ],
      "name": "updateListing",
      "outputs": [],
      "stateMutability": "nonpayable",
      "type": "function"
    },
    {
      "inputs": [],
      "name": "withdraw",
      "outputs": [],
      "stateMutability": "payable",
      "type": "function"
    }
  ],
  "transactionHash": "0x952a2a503df31bd667a0020592a4735f165766efa70b889b917085191c600168",
  "args": [],
  "numDeployments": 1,
  "solcInputHash": "ab8f0d006c10605374c003934ad30531",
  "bytecode": "0x6080604052348015600f57600080fd5b506116308061001f6000396000f3fe6080604052600436106100705760003560e01c806389bfd38f1161004e57806389bfd38f146100e75780639f37092a14610110578063b2ddee061461012c578063f772adf11461015557610070565b80633ccfd60b1461007557806383bd95871461007f57806388700d1c146100aa575b600080fd5b61007d61017e565b005b34801561008b57600080fd5b506100946102f3565b6040516100a19190611256565b60405180910390f35b3480156100b657600080fd5b506100d160048036038101906100cc9190611300565b61033a565b6040516100de919061138d565b60405180910390f35b3480156100f357600080fd5b5061010e600480360381019061010991906113a8565b610404565b005b61012a60048036038101906101259190611300565b61084e565b005b34801561013857600080fd5b50610153600480360381019061014e9190611300565b610c4f565b005b34801561016157600080fd5b5061017c600480360381019061017791906113a8565b610f1f565b005b6000600160003373ffffffffffffffffffffffffffffffffffffffff1673ffffffffffffffffffffffffffffffffffffffff168152602001908152602001600020549050600081036101fc576040517f4f8577a200000000000000000000000000000000000000000000000000000000815260040160405180910390fd5b600160003373ffffffffffffffffffffffffffffffffffffffff1673ffffffffffffffffffffffffffffffffffffffff1681526020019081526020016000206000905560003373ffffffffffffffffffffffffffffffffffffffff16826040516102659061142c565b60006040518083038185875af1925050503d80600081146102a2576040519150601f19603f3d011682016040523d82523d6000602084013e6102a7565b606091505b50509050806102ef5733826040517fade7aacf0000000000000000000000000000000000000000000000000000000081526004016102e6929190611450565b60405180910390fd5b5050565b6000600160003373ffffffffffffffffffffffffffffffffffffffff1673ffffffffffffffffffffffffffffffffffffffff16815260200190815260200160002054905090565b61034261120d565b6000808473ffffffffffffffffffffffffffffffffffffffff1673ffffffffffffffffffffffffffffffffffffffff16815260200190815260200160002060008381526020019081526020016000206040518060400160405290816000820160009054906101000a900473ffffffffffffffffffffffffffffffffffffffff1673ffffffffffffffffffffffffffffffffffffffff1673ffffffffffffffffffffffffffffffffffffffff168152602001600182015481525050905092915050565b82823360008390508173ffffffffffffffffffffffffffffffffffffffff168173ffffffffffffffffffffffffffffffffffffffff16636352211e856040518263ffffffff1660e01b815260040161045c9190611256565b602060405180830381865afa158015610479573d6000803e3d6000fd5b505050506040513d601f19601f8201168201806040525081019061049d919061148e565b73ffffffffffffffffffffffffffffffffffffffff16146104f9578383836040517fbe930e140000000000000000000000000000000000000000000000000000000081526004016104f0939291906114bb565b60405180910390fd5b868660008060008473ffffffffffffffffffffffffffffffffffffffff1673ffffffffffffffffffffffffffffffffffffffff16815260200190815260200160002060008381526020019081526020016000206040518060400160405290816000820160009054906101000a900473ffffffffffffffffffffffffffffffffffffffff1673ffffffffffffffffffffffffffffffffffffffff1673ffffffffffffffffffffffffffffffffffffffff16815260200160018201548152505090506000816020015111156106055782826040517f9f1fb0510000000000000000000000000000000000000000000000000000000081526004016105fc929190611450565b60405180910390fd5b6000881161063f576040517f6a35a83900000000000000000000000000000000000000000000000000000000815260040160405180910390fd5b60008a90503073ffffffffffffffffffffffffffffffffffffffff168173ffffffffffffffffffffffffffffffffffffffff1663081812fc8c6040518263ffffffff1660e01b81526004016106949190611256565b602060405180830381865afa1580156106b1573d6000803e3d6000fd5b505050506040513d601f19601f820116820180604052508101906106d5919061148e565b73ffffffffffffffffffffffffffffffffffffffff1614610722576040517f47e2bd3300000000000000000000000000000000000000000000000000000000815260040160405180910390fd5b60405180604001604052803373ffffffffffffffffffffffffffffffffffffffff1681526020018a8152506000808d73ffffffffffffffffffffffffffffffffffffffff1673ffffffffffffffffffffffffffffffffffffffff16815260200190815260200160002060008c815260200190815260200160002060008201518160000160006101000a81548173ffffffffffffffffffffffffffffffffffffffff021916908373ffffffffffffffffffffffffffffffffffffffff16021790555060208201518160010155905050898b73ffffffffffffffffffffffffffffffffffffffff167ff72a1a7f0543c16546019eb0a601ab3e64090c3eec1a7f6479355bf2e9f49c498b336040516108399291906114f2565b60405180910390a35050505050505050505050565b818160008060008473ffffffffffffffffffffffffffffffffffffffff1673ffffffffffffffffffffffffffffffffffffffff16815260200190815260200160002060008381526020019081526020016000206040518060400160405290816000820160009054906101000a900473ffffffffffffffffffffffffffffffffffffffff1673ffffffffffffffffffffffffffffffffffffffff1673ffffffffffffffffffffffffffffffffffffffff168152602001600182015481525050905060008160200151116109595782826040517fe3bcbe77000000000000000000000000000000000000000000000000000000008152600401610950929190611450565b60405180910390fd5b60008060008773ffffffffffffffffffffffffffffffffffffffff1673ffffffffffffffffffffffffffffffffffffffff16815260200190815260200160002060008681526020019081526020016000206040518060400160405290816000820160009054906101000a900473ffffffffffffffffffffffffffffffffffffffff1673ffffffffffffffffffffffffffffffffffffffff1673ffffffffffffffffffffffffffffffffffffffff16815260200160018201548152505090508060200151341015610a6657858534336040517f1a421bbb000000000000000000000000000000000000000000000000000000008152600401610a5d949392919061151b565b60405180910390fd5b3460016000836000015173ffffffffffffffffffffffffffffffffffffffff1673ffffffffffffffffffffffffffffffffffffffff16815260200190815260200160002054610ab5919061158f565b60016000836000015173ffffffffffffffffffffffffffffffffffffffff1673ffffffffffffffffffffffffffffffffffffffff168152602001908152602001600020819055506000808773ffffffffffffffffffffffffffffffffffffffff1673ffffffffffffffffffffffffffffffffffffffff1681526020019081526020016000206000868152602001908152602001600020600080820160006101000a81549073ffffffffffffffffffffffffffffffffffffffff02191690556001820160009055505060008690508073ffffffffffffffffffffffffffffffffffffffff166342842e0e836000015133896040518463ffffffff1660e01b8152600401610bc3939291906115c3565b600060405180830381600087803b158015610bdd57600080fd5b505af1158015610bf1573d6000803e3d6000fd5b50505050858773ffffffffffffffffffffffffffffffffffffffff167fb03f92a114afd6f0d9b0dc2b572bd8abbd11540e53119b0c574034469bd50d243433604051610c3e9291906114f2565b60405180910390a350505050505050565b818160008060008473ffffffffffffffffffffffffffffffffffffffff1673ffffffffffffffffffffffffffffffffffffffff16815260200190815260200160002060008381526020019081526020016000206040518060400160405290816000820160009054906101000a900473ffffffffffffffffffffffffffffffffffffffff1673ffffffffffffffffffffffffffffffffffffffff1673ffffffffffffffffffffffffffffffffffffffff16815260200160018201548152505090506000816020015111610d5a5782826040517fe3bcbe77000000000000000000000000000000000000000000000000000000008152600401610d51929190611450565b60405180910390fd5b84843360008390508173ffffffffffffffffffffffffffffffffffffffff168173ffffffffffffffffffffffffffffffffffffffff16636352211e856040518263ffffffff1660e01b8152600401610db29190611256565b602060405180830381865afa158015610dcf573d6000803e3d6000fd5b505050506040513d601f19601f82011682018060405250810190610df3919061148e565b73ffffffffffffffffffffffffffffffffffffffff1614610e4f578383836040517fbe930e14000000000000000000000000000000000000000000000000000000008152600401610e46939291906114bb565b60405180910390fd5b6000808a73ffffffffffffffffffffffffffffffffffffffff1673ffffffffffffffffffffffffffffffffffffffff1681526020019081526020016000206000898152602001908152602001600020600080820160006101000a81549073ffffffffffffffffffffffffffffffffffffffff021916905560018201600090555050878973ffffffffffffffffffffffffffffffffffffffff167ff86e54241e209ee4b38db8e64af9614b083d18f23c32f3293c8a87c6b8bf894360405160405180910390a3505050505050505050565b828260008060008473ffffffffffffffffffffffffffffffffffffffff1673ffffffffffffffffffffffffffffffffffffffff16815260200190815260200160002060008381526020019081526020016000206040518060400160405290816000820160009054906101000a900473ffffffffffffffffffffffffffffffffffffffff1673ffffffffffffffffffffffffffffffffffffffff1673ffffffffffffffffffffffffffffffffffffffff1681526020016001820154815250509050600081602001511161102a5782826040517fe3bcbe77000000000000000000000000000000000000000000000000000000008152600401611021929190611450565b60405180910390fd5b85853360008390508173ffffffffffffffffffffffffffffffffffffffff168173ffffffffffffffffffffffffffffffffffffffff16636352211e856040518263ffffffff1660e01b81526004016110829190611256565b602060405180830381865afa15801561109f573d6000803e3d6000fd5b505050506040513d601f19601f820116820180604052508101906110c3919061148e565b73ffffffffffffffffffffffffffffffffffffffff161461111f578383836040517fbe930e14000000000000000000000000000000000000000000000000000000008152600401611116939291906114bb565b60405180910390fd5b60008811611159576040517f6a35a83900000000000000000000000000000000000000000000000000000000815260040160405180910390fd5b876000808c73ffffffffffffffffffffffffffffffffffffffff1673ffffffffffffffffffffffffffffffffffffffff16815260200190815260200160002060008b815260200190815260200160002060010181905550888a73ffffffffffffffffffffffffffffffffffffffff167ff72a1a7f0543c16546019eb0a601ab3e64090c3eec1a7f6479355bf2e9f49c498a336040516111f99291906114f2565b60405180910390a350505050505050505050565b6040518060400160405280600073ffffffffffffffffffffffffffffffffffffffff168152602001600081525090565b6000819050919050565b6112508161123d565b82525050565b600060208201905061126b6000830184611247565b92915050565b600080fd5b600073ffffffffffffffffffffffffffffffffffffffff82169050919050565b60006112a182611276565b9050919050565b6112b181611296565b81146112bc57600080fd5b50565b6000813590506112ce816112a8565b92915050565b6112dd8161123d565b81146112e857600080fd5b50565b6000813590506112fa816112d4565b92915050565b6000806040838503121561131757611316611271565b5b6000611325858286016112bf565b9250506020611336858286016112eb565b9150509250929050565b61134981611296565b82525050565b6113588161123d565b82525050565b6040820160008201516113746000850182611340565b506020820151611387602085018261134f565b50505050565b60006040820190506113a2600083018461135e565b92915050565b6000806000606084860312156113c1576113c0611271565b5b60006113cf868287016112bf565b93505060206113e0868287016112eb565b92505060406113f1868287016112eb565b9150509250925092565b600081905092915050565b50565b60006114166000836113fb565b915061142182611406565b600082019050919050565b600061143782611409565b9150819050919050565b61144a81611296565b82525050565b60006040820190506114656000830185611441565b6114726020830184611247565b9392505050565b600081519050611488816112a8565b92915050565b6000602082840312156114a4576114a3611271565b5b60006114b284828501611479565b91505092915050565b60006060820190506114d06000830186611441565b6114dd6020830185611247565b6114ea6040830184611441565b949350505050565b60006040820190506115076000830185611247565b6115146020830184611441565b9392505050565b60006080820190506115306000830187611441565b61153d6020830186611247565b61154a6040830185611247565b6115576060830184611441565b95945050505050565b7f4e487b7100000000000000000000000000000000000000000000000000000000600052601160045260246000fd5b600061159a8261123d565b91506115a58361123d565b92508282019050808211156115bd576115bc611560565b5b92915050565b60006060820190506115d86000830186611441565b6115e56020830185611441565b6115f26040830184611247565b94935050505056fea26469706673582212206770f16c9321c593d65ef68f07e033f57f7ecf473fbec174609484bfd3abdafa64736f6c63430008190033",
  "devdoc": {
    "kind": "dev",
    "methods": {},
    "version": 1
  },
  "userdoc": {
    "kind": "user",
    "methods": {},
    "version": 1
  },
  "storageLayout": {
    "storage": [
      {
        "astId": 2907,
        "contract": "contracts/NFTmarket.sol:NFTmarket",
        "label": "s_listings",
        "offset": 0,
        "slot": "0",
        "type": "t_mapping(t_address,t_mapping(t_uint256,t_struct(Listing)2900_storage))"
      },
      {
        "astId": 2911,
        "contract": "contracts/NFTmarket.sol:NFTmarket",
        "label": "s_proceeds",
        "offset": 0,
        "slot": "1",
        "type": "t_mapping(t_address,t_uint256)"
      }
    ],
    "types": {
      "t_address": {
        "encoding": "inplace",
        "label": "address",
        "numberOfBytes": "20"
      },
      "t_mapping(t_address,t_mapping(t_uint256,t_struct(Listing)2900_storage))": {
        "encoding": "mapping",
        "key": "t_address",
        "label": "mapping(address => mapping(uint256 => struct NFTmarket.Listing))",
        "numberOfBytes": "32",
        "value": "t_mapping(t_uint256,t_struct(Listing)2900_storage)"
      },
      "t_mapping(t_address,t_uint256)": {
        "encoding": "mapping",
        "key": "t_address",
        "label": "mapping(address => uint256)",
        "numberOfBytes": "32",
        "value": "t_uint256"
      },
      "t_mapping(t_uint256,t_struct(Listing)2900_storage)": {
        "encoding": "mapping",
        "key": "t_uint256",
        "label": "mapping(uint256 => struct NFTmarket.Listing)",
        "numberOfBytes": "32",
        "value": "t_struct(Listing)2900_storage"
      },
      "t_struct(Listing)2900_storage": {
        "encoding": "inplace",
        "label": "struct NFTmarket.Listing",
        "members": [
          {
            "astId": 2897,
            "contract": "contracts/NFTmarket.sol:NFTmarket",
            "label": "seller",
            "offset": 0,
            "slot": "0",
            "type": "t_address"
          },
          {
            "astId": 2899,
            "contract": "contracts/NFTmarket.sol:NFTmarket",
            "label": "price",
            "offset": 0,
            "slot": "1",
            "type": "t_uint256"
          }
        ],
        "numberOfBytes": "64"
      },
      "t_uint256": {
        "encoding": "inplace",
        "label": "uint256",
        "numberOfBytes": "32"
      }
    }
  }
}